{"abi":[{"type":"function","name":"addVault","inputs":[],"outputs":[{"name":"_vaultID","type":"uint256","internalType":"uint256"}],"stateMutability":"nonpayable"},{"type":"function","name":"deposit","inputs":[{"name":"_vaultID","type":"uint256","internalType":"uint256"},{"name":"_amount","type":"uint256","internalType":"uint256"}],"outputs":[],"stateMutability":"payable"},{"type":"function","name":"getMyVaults","inputs":[],"outputs":[{"name":"","type":"uint256[]","internalType":"uint256[]"}],"stateMutability":"view"},{"type":"function","name":"getVault","inputs":[{"name":"_vaultID","type":"uint256","internalType":"uint256"}],"outputs":[{"name":"_owner","type":"address","internalType":"address"},{"name":"_balance","type":"uint256","internalType":"uint256"}],"stateMutability":"view"},{"type":"function","name":"getVaultsLength","inputs":[],"outputs":[{"name":"_vaultLength","type":"uint256","internalType":"uint256"}],"stateMutability":"view"},{"type":"function","name":"vaults","inputs":[{"name":"","type":"uint256","internalType":"uint256"}],"outputs":[{"name":"owner","type":"address","internalType":"address"},{"name":"vaultID","type":"uint256","internalType":"uint256"},{"name":"balance","type":"uint256","internalType":"uint256"}],"stateMutability":"view"},{"type":"function","name":"vaultsByOwner","inputs":[{"name":"","type":"address","internalType":"address"},{"name":"","type":"uint256","internalType":"uint256"}],"outputs":[{"name":"","type":"uint256","internalType":"uint256"}],"stateMutability":"view"},{"type":"function","name":"withdraw","inputs":[{"name":"_vaultID","type":"uint256","internalType":"uint256"},{"name":"_amount","type":"uint256","internalType":"uint256"}],"outputs":[],"stateMutability":"nonpayable"},{"type":"event","name":"VaultAdded","inputs":[{"name":"_vaultID","type":"uint256","indexed":false,"internalType":"uint256"},{"name":"_owner","type":"address","indexed":false,"internalType":"address"}],"anonymous":false},{"type":"event","name":"VaultDeposit","inputs":[{"name":"_vaultID","type":"uint256","indexed":false,"internalType":"uint256"},{"name":"_owner","type":"address","indexed":false,"internalType":"address"},{"name":"_amount","type":"uint256","indexed":false,"internalType":"uint256"}],"anonymous":false},{"type":"event","name":"VaultWithraw","inputs":[{"name":"_vaultID","type":"uint256","indexed":false,"internalType":"uint256"},{"name":"_owner","type":"address","indexed":false,"internalType":"address"},{"name":"_amount","type":"uint256","indexed":false,"internalType":"uint256"}],"anonymous":false},{"type":"error","name":"Unauthorised","inputs":[]}],"bytecode":{"object":"0x6080604052348015600e575f5ffd5b50610dab8061001c5f395ff3fe60806040526004361061007a575f3560e01c80638c64ea4a1161004d5780638c64ea4a146101365780639403b63414610174578063e2bbb158146101b1578063fb3ddf57146101cd5761007a565b80631a0121db1461007e578063441a3e70146100ba57806344b19dfc146100e25780638c5334111461010c575b5f5ffd5b348015610089575f5ffd5b506100a4600480360381019061009f9190610900565b6101f7565b6040516100b1919061094d565b60405180910390f35b3480156100c5575f5ffd5b506100e060048036038101906100db9190610966565b610222565b005b3480156100ed575f5ffd5b506100f661042b565b604051610103919061094d565b60405180910390f35b348015610117575f5ffd5b50610120610436565b60405161012d919061094d565b60405180910390f35b348015610141575f5ffd5b5061015c600480360381019061015791906109a4565b610592565b60405161016b939291906109de565b60405180910390f35b34801561017f575f5ffd5b5061019a600480360381019061019591906109a4565b6105e5565b6040516101a8929190610a13565b60405180910390f35b6101cb60048036038101906101c69190610966565b61063b565b005b3480156101d8575f5ffd5b506101e16107de565b6040516101ee9190610af1565b60405180910390f35b6001602052815f5260405f208181548110610210575f80fd5b905f5260205f20015f91509150505481565b813373ffffffffffffffffffffffffffffffffffffffff165f828154811061024d5761024c610b11565b5b905f5260205f2090600302015f015f9054906101000a900473ffffffffffffffffffffffffffffffffffffffff1673ffffffffffffffffffffffffffffffffffffffff16146102c8576040517fd7a2ae6a00000000000000000000000000000000000000000000000000000000815260040160405180910390fd5b5f821161030a576040517f08c379a000000000000000000000000000000000000000000000000000000000815260040161030190610b98565b60405180910390fd5b5f838154811061031d5761031c610b11565b5b905f5260205f2090600302016002015482111561036f576040517f08c379a000000000000000000000000000000000000000000000000000000000815260040161036690610c00565b60405180910390fd5b815f848154811061038357610382610b11565b5b905f5260205f2090600302016002015f8282546103a09190610c4b565b925050819055503373ffffffffffffffffffffffffffffffffffffffff166108fc8390811502906040515f60405180830381858888f193505050501580156103ea573d5f5f3e3d5ffd5b507f7d5b1dc21f49c5d7d2fa5c89cdf4e275e3f443a10fb9808789ff0ebacdcbc4af83338460405161041e93929190610c7e565b60405180910390a1505050565b5f5f80549050905090565b5f5f5f8054905090505f60405180606001604052803373ffffffffffffffffffffffffffffffffffffffff1681526020018381526020015f815250908060018154018082558091505060019003905f5260205f2090600302015f909190919091505f820151815f015f6101000a81548173ffffffffffffffffffffffffffffffffffffffff021916908373ffffffffffffffffffffffffffffffffffffffff1602179055506020820151816001015560408201518160020155505060015f3373ffffffffffffffffffffffffffffffffffffffff1673ffffffffffffffffffffffffffffffffffffffff1681526020019081526020015f2081908060018154018082558091505060019003905f5260205f20015f90919091909150557fa3ccd9b56d18a571b67b97905e5ef425788000d31a490513f7cad937175beeeb8133604051610583929190610cb3565b60405180910390a18091505090565b5f81815481106105a0575f80fd5b905f5260205f2090600302015f91509050805f015f9054906101000a900473ffffffffffffffffffffffffffffffffffffffff16908060010154908060020154905083565b5f5f5f5f84815481106105fb576105fa610b11565b5b905f5260205f2090600302019050805f015f9054906101000a900473ffffffffffffffffffffffffffffffffffffffff1681600201549250925050915091565b813373ffffffffffffffffffffffffffffffffffffffff165f828154811061066657610665610b11565b5b905f5260205f2090600302015f015f9054906101000a900473ffffffffffffffffffffffffffffffffffffffff1673ffffffffffffffffffffffffffffffffffffffff16146106e1576040517fd7a2ae6a00000000000000000000000000000000000000000000000000000000815260040160405180910390fd5b5f8211610723576040517f08c379a000000000000000000000000000000000000000000000000000000000815260040161071a90610b98565b60405180910390fd5b81341015610766576040517f08c379a000000000000000000000000000000000000000000000000000000000815260040161075d90610d24565b60405180910390fd5b815f848154811061077a57610779610b11565b5b905f5260205f2090600302016002015f8282546107979190610d42565b925050819055507fd9c5c6c4e1700169f54d83c8b698252ca33652331acb3dd7540530aca8e1f6ee8333846040516107d193929190610c7e565b60405180910390a1505050565b606060015f3373ffffffffffffffffffffffffffffffffffffffff1673ffffffffffffffffffffffffffffffffffffffff1681526020019081526020015f2080548060200260200160405190810160405280929190818152602001828054801561086557602002820191905f5260205f20905b815481526020019060010190808311610851575b5050505050905090565b5f5ffd5b5f73ffffffffffffffffffffffffffffffffffffffff82169050919050565b5f61089c82610873565b9050919050565b6108ac81610892565b81146108b6575f5ffd5b50565b5f813590506108c7816108a3565b92915050565b5f819050919050565b6108df816108cd565b81146108e9575f5ffd5b50565b5f813590506108fa816108d6565b92915050565b5f5f604083850312156109165761091561086f565b5b5f610923858286016108b9565b9250506020610934858286016108ec565b9150509250929050565b610947816108cd565b82525050565b5f6020820190506109605f83018461093e565b92915050565b5f5f6040838503121561097c5761097b61086f565b5b5f610989858286016108ec565b925050602061099a858286016108ec565b9150509250929050565b5f602082840312156109b9576109b861086f565b5b5f6109c6848285016108ec565b91505092915050565b6109d881610892565b82525050565b5f6060820190506109f15f8301866109cf565b6109fe602083018561093e565b610a0b604083018461093e565b949350505050565b5f604082019050610a265f8301856109cf565b610a33602083018461093e565b9392505050565b5f81519050919050565b5f82825260208201905092915050565b5f819050602082019050919050565b610a6c816108cd565b82525050565b5f610a7d8383610a63565b60208301905092915050565b5f602082019050919050565b5f610a9f82610a3a565b610aa98185610a44565b9350610ab483610a54565b805f5b83811015610ae4578151610acb8882610a72565b9750610ad683610a89565b925050600181019050610ab7565b5085935050505092915050565b5f6020820190508181035f830152610b098184610a95565b905092915050565b7f4e487b71000000000000000000000000000000000000000000000000000000005f52603260045260245ffd5b5f82825260208201905092915050565b7f4d7573742073656e64206e617469766520746f6b656e000000000000000000005f82015250565b5f610b82601683610b3e565b9150610b8d82610b4e565b602082019050919050565b5f6020820190508181035f830152610baf81610b76565b9050919050565b7f5661756c74206d75737420686176652073756666696369656e742066756e64735f82015250565b5f610bea602083610b3e565b9150610bf582610bb6565b602082019050919050565b5f6020820190508181035f830152610c1781610bde565b9050919050565b7f4e487b71000000000000000000000000000000000000000000000000000000005f52601160045260245ffd5b5f610c55826108cd565b9150610c60836108cd565b9250828203905081811115610c7857610c77610c1e565b5b92915050565b5f606082019050610c915f83018661093e565b610c9e60208301856109cf565b610cab604083018461093e565b949350505050565b5f604082019050610cc65f83018561093e565b610cd360208301846109cf565b9392505050565b7f496e73756666696369656e742066756e64732073656e740000000000000000005f82015250565b5f610d0e601783610b3e565b9150610d1982610cda565b602082019050919050565b5f6020820190508181035f830152610d3b81610d02565b9050919050565b5f610d4c826108cd565b9150610d57836108cd565b9250828201905080821115610d6f57610d6e610c1e565b5b9291505056fea264697066735822122017475785257dcde463a67a0729430caf660ea634798000deb24ef332c7c7bc2564736f6c634300081c0033","linkReferences":{}},"methodIdentifiers":{"addVault()":"8c533411","deposit(uint256,uint256)":"e2bbb158","getMyVaults()":"fb3ddf57","getVault(uint256)":"9403b634","getVaultsLength()":"44b19dfc","vaults(uint256)":"8c64ea4a","vaultsByOwner(address,uint256)":"1a0121db","withdraw(uint256,uint256)":"441a3e70"},"id":19}